{
  "chainId": 31337,
  "ownerAddress": "0x547289319C3e6aedB179C0b8e8aF0B5ACd062603",
  "startingNonce": 0,
  "gasPrice": "20000000000",
  "gasPriceGwei": 20,
  "transactions": [
    {
      "name": "IdentityRegistry",
      "proxy": "0x8004A818BFB912233c491871b3d84c89A494BD9e",
      "implementation": "0x581f2c49A6d0BF354A2Da21C43fda478765675d1",
      "nonce": 0,
      "gasLimit": "191700",
      "gasPrice": "20000000000",
      "requiredFunding": "3834000000000000",
      "requiredFundingEth": "0.003834",
      "signedTransaction": "0xf8ec808504a817c8008302ecd4948004a818bfb912233c491871b3d84c89a494bd9e80b8844f1ef286000000000000000000000000581f2c49a6d0bf354a2da21c43fda478765675d1000000000000000000000000000000000000000000000000000000000000004000000000000000000000000000000000000000000000000000000000000000048129fc1c0000000000000000000000000000000000000000000000000000000082f4f5a08ec07d14235f34747ec0f4df341abf10ba6bcac58e9d8e7ba4cc7a0efe159af2a0428e8ae503a5ed81fce3ad2bf4497052806ee0a7964e42417209ce97abab48d3"
    },
    {
      "name": "ReputationRegistry",
      "proxy": "0x8004B663056A597Dffe9eCcC1965A193B7388713",
      "implementation": "0xB2EF2ca2b5A70a9091dD9f6A92460fA135e22E99",
      "nonce": 1,
      "gasLimit": "66329",
      "gasPrice": "20000000000",
      "requiredFunding": "1326580000000000",
      "requiredFundingEth": "0.001327",
      "signedTransaction": "0xf9010c018504a817c80083010319948004b663056a597dffe9eccc1965a193b738871380b8a44f1ef286000000000000000000000000b2ef2ca2b5a70a9091dd9f6a92460fa135e22e9900000000000000000000000000000000000000000000000000000000000000400000000000000000000000000000000000000000000000000000000000000024c4d66de80000000000000000000000008004a818bfb912233c491871b3d84c89a494bd9e0000000000000000000000000000000000000000000000000000000082f4f5a0f47b32c9c239a665f2ba3c1fd3d7daf3de67ed84d9a6c6e3a1dd3d789ef32781a0748e69dbd5ad1318aa8ae8ee6ff1d3bfa1d24d962401c4ddf811e9395a0a8cb3"
    },
    {
      "name": "ValidationRegistry",
      "proxy": "0x8004Cb1BF31DAf7788923b405b754f57acEB4272",
      "implementation": "0x106e3d8500B92A86D669702e75097E945C2e2B0e",
      "nonce": 2,
      "gasLimit": "66201",
      "gasPrice": "20000000000",
      "requiredFunding": "1324020000000000",
      "requiredFundingEth": "0.001324",
      "signedTransaction": "0xf9010c028504a817c80083010299948004cb1bf31daf7788923b405b754f57aceb427280b8a44f1ef286000000000000000000000000106e3d8500b92a86d669702e75097e945c2e2b0e00000000000000000000000000000000000000000000000000000000000000400000000000000000000000000000000000000000000000000000000000000024c4d66de80000000000000000000000008004a818bfb912233c491871b3d84c89a494bd9e0000000000000000000000000000000000000000000000000000000082f4f6a03c78b40693ff74f6709f8f6192e0bbb19f075628cff6cd78b978b616d21ba1afa05cfcff29da5de5880d25dcadf86b74251550dfec6847aa89302a15f31c254155"
    }
  ],
  "totalFunding": "6484600000000000",
  "totalFundingEth": "0.006485",
  "timestamp": "2026-01-07T10:22:37.148Z"
}