{
  "chainId": 31337,
  "ownerAddress": "0x547289319C3e6aedB179C0b8e8aF0B5ACd062603",
  "startingNonce": 0,
  "gasPrice": "20000000000",
  "gasPriceGwei": 20,
  "transactions": [
    {
      "name": "IdentityRegistry",
      "proxy": "0x8004AbdDA9b877187bF865eD1d8B5A41Da3c4997",
      "implementation": "0x5B1e1fbACf33Cca26Eb8da79918EE8544eA1CF13",
      "nonce": 0,
      "gasLimit": "29575",
      "gasPrice": "20000000000",
      "requiredFunding": "591500000000000",
      "requiredFundingEth": "0.000592",
      "signedTransaction": "0xf8cb808504a817c800827387948004abdda9b877187bf865ed1d8b5a41da3c499780b8644f1ef2860000000000000000000000005b1e1fbacf33cca26eb8da79918ee8544ea1cf130000000000000000000000000000000000000000000000000000000000000040000000000000000000000000000000000000000000000000000000000000000082f4f5a0f57b98633806f1d7b99e2dff698a4970b9ecbbf8a20e60e0288222a2e3267549a0261f10d6dadab568be55c741d76acc2913229113c0dafb2d7ac286008b46e249"
    },
    {
      "name": "ReputationRegistry",
      "proxy": "0x8004B312333aCb5764597c2BeEe256596B5C6876",
      "implementation": "0x11E6Aed2BC5a1370352010a40ba0Df533887DcA2",
      "nonce": 1,
      "gasLimit": "29575",
      "gasPrice": "20000000000",
      "requiredFunding": "591500000000000",
      "requiredFundingEth": "0.000592",
      "signedTransaction": "0xf8cb018504a817c800827387948004b312333acb5764597c2beee256596b5c687680b8644f1ef28600000000000000000000000011e6aed2bc5a1370352010a40ba0df533887dca20000000000000000000000000000000000000000000000000000000000000040000000000000000000000000000000000000000000000000000000000000000082f4f5a0b44f00da87b479c786a16b5dd42ed9bf2ef6cfdb83f15f5043104a2eec2333efa06b4cc18e9fe10fbcca398b69f55c8beba8c728a908517659e6a6e8f38d63fb3d"
    },
    {
      "name": "ValidationRegistry",
      "proxy": "0x8004C8AEF64521bC97AB50799d394CDb785885E3",
      "implementation": "0x34A8244cfCF50433FEE0263EF54649dd85eAD2C4",
      "nonce": 2,
      "gasLimit": "29575",
      "gasPrice": "20000000000",
      "requiredFunding": "591500000000000",
      "requiredFundingEth": "0.000592",
      "signedTransaction": "0xf8cb028504a817c800827387948004c8aef64521bc97ab50799d394cdb785885e380b8644f1ef28600000000000000000000000034a8244cfcf50433fee0263ef54649dd85ead2c40000000000000000000000000000000000000000000000000000000000000040000000000000000000000000000000000000000000000000000000000000000082f4f6a0eceeb165664e9a92c234349f16020ab4c57598ddfb803a449904417636e92d3ba005c57168d39f4f13f14ec86cba5e9a80f0e26d1e9fec704e5f32f956e266e220"
    }
  ],
  "totalFunding": "1774500000000000",
  "totalFundingEth": "0.001775",
  "timestamp": "2025-11-21T16:50:39.564Z"
}