{
  "chainId": 31337,
  "ownerAddress": "0x547289319C3e6aedB179C0b8e8aF0B5ACd062603",
  "startingNonce": 0,
  "gasPrice": "20000000000",
  "gasPriceGwei": 20,
  "transactions": [
    {
      "name": "IdentityRegistry",
      "proxy": "0x8004A818BFB912233c491871b3d84c89A494BD9e",
      "implementation": "0x25dEb1ec9F7FaE4Bd55d06D8e16f03764D0676b6",
      "nonce": 0,
      "gasLimit": "188927",
      "gasPrice": "20000000000",
      "requiredFunding": "3778540000000000",
      "requiredFundingEth": "0.003779",
      "signedTransaction": "0xf8ec808504a817c8008302e1ff948004a818bfb912233c491871b3d84c89a494bd9e80b8844f1ef28600000000000000000000000025deb1ec9f7fae4bd55d06d8e16f03764d0676b6000000000000000000000000000000000000000000000000000000000000004000000000000000000000000000000000000000000000000000000000000000048129fc1c0000000000000000000000000000000000000000000000000000000082f4f6a016a7ca79f076f00eaa7e0abf21f437b0d926cb264bf5936deb523957dbc39c9fa03204ac9e0edd869b4e5755552286c6339667e62cb5b7f609e49a416da9ac42a5"
    },
    {
      "name": "ReputationRegistry",
      "proxy": "0x8004B663056A597Dffe9eCcC1965A193B7388713",
      "implementation": "0x417b124999e4344BFAb59d95de5C7CE4e3b6488b",
      "nonce": 1,
      "gasLimit": "63378",
      "gasPrice": "20000000000",
      "requiredFunding": "1267560000000000",
      "requiredFundingEth": "0.001268",
      "signedTransaction": "0xf9010b018504a817c80082f792948004b663056a597dffe9eccc1965a193b738871380b8a44f1ef286000000000000000000000000417b124999e4344bfab59d95de5c7ce4e3b6488b00000000000000000000000000000000000000000000000000000000000000400000000000000000000000000000000000000000000000000000000000000024c4d66de80000000000000000000000008004a818bfb912233c491871b3d84c89a494bd9e0000000000000000000000000000000000000000000000000000000082f4f6a055057b30339036f43d8b23cbda8f9bebc4e641c0c58908c96ad7d56030d17b45a026a84d728be4f6385eafddce7cd0424460be868262f1ade3e114457b4503e658"
    },
    {
      "name": "ValidationRegistry",
      "proxy": "0x8004Cb1BF31DAf7788923b405b754f57acEB4272",
      "implementation": "0x8b318C87CE5276aEE73bff9C55bdE77F3BFD1A1d",
      "nonce": 2,
      "gasLimit": "63239",
      "gasPrice": "20000000000",
      "requiredFunding": "1264780000000000",
      "requiredFundingEth": "0.001265",
      "signedTransaction": "0xf9010b028504a817c80082f707948004cb1bf31daf7788923b405b754f57aceb427280b8a44f1ef2860000000000000000000000008b318c87ce5276aee73bff9c55bde77f3bfd1a1d00000000000000000000000000000000000000000000000000000000000000400000000000000000000000000000000000000000000000000000000000000024c4d66de80000000000000000000000008004a818bfb912233c491871b3d84c89a494bd9e0000000000000000000000000000000000000000000000000000000082f4f5a058336066748be3bca4b58f4a5f6876b08431518049611c61e0ce90d4d5938aaaa0311882e094362388aa5d25c8e1fa2f92561531f78a0b17d98af90f1464e5500b"
    }
  ],
  "totalFunding": "6310880000000000",
  "totalFundingEth": "0.006311",
  "timestamp": "2026-01-19T20:13:27.891Z"
}