{
  "chainId": 31337,
  "ownerAddress": "0x547289319C3e6aedB179C0b8e8aF0B5ACd062603",
  "startingNonce": 0,
  "gasPrice": "20000000000",
  "gasPriceGwei": 20,
  "transactions": [
    {
      "name": "IdentityRegistry",
      "proxy": "0x8004A818BFB912233c491871b3d84c89A494BD9e",
      "implementation": "0xb678c7C4c4aa9d0A0BBFa2e92D2822c1417801fC",
      "nonce": 0,
      "gasLimit": "48798",
      "gasPrice": "20000000000",
      "requiredFunding": "975960000000000",
      "requiredFundingEth": "0.000976",
      "signedTransaction": "0xf8cb808504a817c80082be9e948004a818bfb912233c491871b3d84c89a494bd9e80b8644f1ef286000000000000000000000000b678c7c4c4aa9d0a0bbfa2e92d2822c1417801fc0000000000000000000000000000000000000000000000000000000000000040000000000000000000000000000000000000000000000000000000000000000082f4f6a0a3809048cd28d618d3650cfe0a9fde3b2e4d10c1e179b24af837098ad2496de4a040c226d7dd054570a2367a6236c390e503aa176ea43b6fcbe479779b3ba48569"
    },
    {
      "name": "ReputationRegistry",
      "proxy": "0x8004B663056A597Dffe9eCcC1965A193B7388713",
      "implementation": "0xd7198334d8cd215cFD345f0f09639b3EAaFCa535",
      "nonce": 1,
      "gasLimit": "48595",
      "gasPrice": "20000000000",
      "requiredFunding": "971900000000000",
      "requiredFundingEth": "0.000972",
      "signedTransaction": "0xf8cb018504a817c80082bdd3948004b663056a597dffe9eccc1965a193b738871380b8644f1ef286000000000000000000000000d7198334d8cd215cfd345f0f09639b3eaafca5350000000000000000000000000000000000000000000000000000000000000040000000000000000000000000000000000000000000000000000000000000000082f4f5a0eb8c90c9848da9a716cce5d74c93ed12c5e31c7454396eaca950afc555ffe3dca06eb4485f68c55a07a2caaad1bf8b4f121135fb9fe67adf2fcb4f8378f30a1b0f"
    },
    {
      "name": "ValidationRegistry",
      "proxy": "0x8004Cb1BF31DAf7788923b405b754f57acEB4272",
      "implementation": "0x4aB71c45c9B7c4c56a41C76Ca74f370eC929187d",
      "nonce": 2,
      "gasLimit": "48566",
      "gasPrice": "20000000000",
      "requiredFunding": "971320000000000",
      "requiredFundingEth": "0.000971",
      "signedTransaction": "0xf8cb028504a817c80082bdb6948004cb1bf31daf7788923b405b754f57aceb427280b8644f1ef2860000000000000000000000004ab71c45c9b7c4c56a41c76ca74f370ec929187d0000000000000000000000000000000000000000000000000000000000000040000000000000000000000000000000000000000000000000000000000000000082f4f6a0fba667b459d2ca059ecb897b0fec5cc4716e666bfdf73a53e21bb3c9c8968843a00a5d8a682e1148b97a15ecddab585e600de2b9670b02e839f9675656adb1893e"
    }
  ],
  "totalFunding": "2919180000000000",
  "totalFundingEth": "0.002919",
  "timestamp": "2026-01-07T02:48:39.314Z"
}